{
  "contractName": "ProjectSubmission",
  "abi": [
    {
      "inputs": [],
      "payable": false,
      "stateMutability": "nonpayable",
      "type": "constructor",
      "signature": "constructor"
    },
    {
      "constant": true,
      "inputs": [],
      "name": "owner",
      "outputs": [
        {
          "internalType": "address",
          "name": "",
          "type": "address"
        }
      ],
      "payable": false,
      "stateMutability": "view",
      "type": "function",
      "signature": "0x8da5cb5b"
    },
    {
      "constant": true,
      "inputs": [],
      "name": "ownerBalance",
      "outputs": [
        {
          "internalType": "uint256",
          "name": "",
          "type": "uint256"
        }
      ],
      "payable": false,
      "stateMutability": "view",
      "type": "function",
      "signature": "0xbedcf003"
    },
    {
      "constant": true,
      "inputs": [
        {
          "internalType": "bytes32",
          "name": "",
          "type": "bytes32"
        }
      ],
      "name": "projects",
      "outputs": [
        {
          "internalType": "address",
          "name": "author",
          "type": "address"
        },
        {
          "internalType": "address",
          "name": "universityAddress",
          "type": "address"
        },
        {
          "internalType": "enum ProjectSubmission.ProjectStatus",
          "name": "status",
          "type": "uint8"
        },
        {
          "internalType": "uint256",
          "name": "balance",
          "type": "uint256"
        }
      ],
      "payable": false,
      "stateMutability": "view",
      "type": "function",
      "signature": "0xb96ea12d"
    },
    {
      "constant": true,
      "inputs": [
        {
          "internalType": "address",
          "name": "",
          "type": "address"
        }
      ],
      "name": "universities",
      "outputs": [
        {
          "internalType": "uint256",
          "name": "balance",
          "type": "uint256"
        },
        {
          "internalType": "bool",
          "name": "acceptingSubmissions",
          "type": "bool"
        }
      ],
      "payable": false,
      "stateMutability": "view",
      "type": "function",
      "signature": "0xf0995560"
    },
    {
      "constant": false,
      "inputs": [
        {
          "internalType": "address",
          "name": "account",
          "type": "address"
        }
      ],
      "name": "registerUniversity",
      "outputs": [],
      "payable": false,
      "stateMutability": "nonpayable",
      "type": "function",
      "signature": "0x10d6ada1"
    },
    {
      "constant": false,
      "inputs": [
        {
          "internalType": "address",
          "name": "account",
          "type": "address"
        }
      ],
      "name": "disableUniversity",
      "outputs": [],
      "payable": false,
      "stateMutability": "nonpayable",
      "type": "function",
      "signature": "0x9dfb340c"
    },
    {
      "constant": false,
      "inputs": [
        {
          "internalType": "bytes32",
          "name": "projectHash",
          "type": "bytes32"
        },
        {
          "internalType": "address",
          "name": "universityAddress",
          "type": "address"
        }
      ],
      "name": "submitProject",
      "outputs": [],
      "payable": true,
      "stateMutability": "payable",
      "type": "function",
      "signature": "0xc95826f8"
    },
    {
      "constant": false,
      "inputs": [
        {
          "internalType": "bytes32",
          "name": "projectHash",
          "type": "bytes32"
        }
      ],
      "name": "disableProject",
      "outputs": [],
      "payable": false,
      "stateMutability": "nonpayable",
      "type": "function",
      "signature": "0x8ebd8196"
    },
    {
      "constant": false,
      "inputs": [
        {
          "internalType": "bytes32",
          "name": "projectHash",
          "type": "bytes32"
        },
        {
          "internalType": "enum ProjectSubmission.ProjectStatus",
          "name": "status",
          "type": "uint8"
        }
      ],
      "name": "reviewProject",
      "outputs": [],
      "payable": false,
      "stateMutability": "nonpayable",
      "type": "function",
      "signature": "0x70b195ba"
    },
    {
      "constant": false,
      "inputs": [
        {
          "internalType": "address",
          "name": "universityAddress",
          "type": "address"
        },
        {
          "internalType": "bytes32",
          "name": "projectHash",
          "type": "bytes32"
        }
      ],
      "name": "donate",
      "outputs": [],
      "payable": true,
      "stateMutability": "payable",
      "type": "function",
      "signature": "0xfd719c01"
    },
    {
      "constant": false,
      "inputs": [],
      "name": "withdraw",
      "outputs": [],
      "payable": false,
      "stateMutability": "nonpayable",
      "type": "function",
      "signature": "0x3ccfd60b"
    },
    {
      "constant": false,
      "inputs": [
        {
          "internalType": "bytes32",
          "name": "projectHash",
          "type": "bytes32"
        }
      ],
      "name": "withdraw",
      "outputs": [],
      "payable": false,
      "stateMutability": "nonpayable",
      "type": "function",
      "signature": "0x8e19899e"
    }
  ],
  "bytecode": "0x608060405234801561001057600080fd5b50336000806101000a81548173ffffffffffffffffffffffffffffffffffffffff021916908373ffffffffffffffffffffffffffffffffffffffff160217905550611182806100606000396000f3fe6080604052600436106100c4576000357c0100000000000000000000000000000000000000000000000000000000900480639dfb340c116100815780639dfb340c14610246578063b96ea12d14610297578063bedcf00314610361578063c95826f81461038c578063f0995560146103da578063fd719c011461044a576100c4565b806310d6ada1146100c95780633ccfd60b1461011a57806370b195ba146101315780638da5cb5b146101795780638e19899e146101d05780638ebd81961461020b575b600080fd5b3480156100d557600080fd5b50610118600480360360208110156100ec57600080fd5b81019080803573ffffffffffffffffffffffffffffffffffffffff169060200190929190505050610498565b005b34801561012657600080fd5b5061012f6105b8565b005b34801561013d57600080fd5b506101776004803603604081101561015457600080fd5b8101908080359060200190929190803560ff1690602001909291905050506107dd565b005b34801561018557600080fd5b5061018e61096a565b604051808273ffffffffffffffffffffffffffffffffffffffff1673ffffffffffffffffffffffffffffffffffffffff16815260200191505060405180910390f35b3480156101dc57600080fd5b50610209600480360360208110156101f357600080fd5b810190808035906020019092919050505061098f565b005b34801561021757600080fd5b506102446004803603602081101561022e57600080fd5b8101908080359060200190929190505050610ac5565b005b34801561025257600080fd5b506102956004803603602081101561026957600080fd5b81019080803573ffffffffffffffffffffffffffffffffffffffff169060200190929190505050610bc1565b005b3480156102a357600080fd5b506102d0600480360360208110156102ba57600080fd5b8101908080359060200190929190505050610ce1565b604051808573ffffffffffffffffffffffffffffffffffffffff1673ffffffffffffffffffffffffffffffffffffffff1681526020018473ffffffffffffffffffffffffffffffffffffffff1673ffffffffffffffffffffffffffffffffffffffff16815260200183600381111561034457fe5b60ff16815260200182815260200194505050505060405180910390f35b34801561036d57600080fd5b50610376610d5e565b6040518082815260200191505060405180910390f35b6103d8600480360360408110156103a257600080fd5b8101908080359060200190929190803573ffffffffffffffffffffffffffffffffffffffff169060200190929190505050610d64565b005b3480156103e657600080fd5b50610429600480360360208110156103fd57600080fd5b81019080803573ffffffffffffffffffffffffffffffffffffffff169060200190929190505050610fe1565b60405180838152602001821515151581526020019250505060405180910390f35b6104966004803603604081101561046057600080fd5b81019080803573ffffffffffffffffffffffffffffffffffffffff16906020019092919080359060200190929190505050611012565b005b6000809054906101000a900473ffffffffffffffffffffffffffffffffffffffff1673ffffffffffffffffffffffffffffffffffffffff163373ffffffffffffffffffffffffffffffffffffffff161461055a576040517f08c379a000000000000000000000000000000000000000000000000000000000815260040180806020018281038252601b8152602001807f4f6e6c7920746865206f776e65722063616e20646f20746869732e000000000081525060200191505060405180910390fd5b6001600260008373ffffffffffffffffffffffffffffffffffffffff1673ffffffffffffffffffffffffffffffffffffffff16815260200190815260200160002060010160006101000a81548160ff02191690831515021790555050565b6000809054906101000a900473ffffffffffffffffffffffffffffffffffffffff1673ffffffffffffffffffffffffffffffffffffffff163373ffffffffffffffffffffffffffffffffffffffff16148061065557506000600260003373ffffffffffffffffffffffffffffffffffffffff1673ffffffffffffffffffffffffffffffffffffffff16815260200190815260200160002060000154115b61065e57600080fd5b6000809054906101000a900473ffffffffffffffffffffffffffffffffffffffff1673ffffffffffffffffffffffffffffffffffffffff163373ffffffffffffffffffffffffffffffffffffffff161415610709573373ffffffffffffffffffffffffffffffffffffffff166108fc6001549081150290604051600060405180830381858888f193505050501580156106fb573d6000803e3d6000fd5b5060006001819055506107db565b3373ffffffffffffffffffffffffffffffffffffffff166108fc600260003373ffffffffffffffffffffffffffffffffffffffff1673ffffffffffffffffffffffffffffffffffffffff168152602001908152602001600020600001549081150290604051600060405180830381858888f19350505050158015610791573d6000803e3d6000fd5b506000600260003373ffffffffffffffffffffffffffffffffffffffff1673ffffffffffffffffffffffffffffffffffffffff168152602001908152602001600020600001819055505b565b6000809054906101000a900473ffffffffffffffffffffffffffffffffffffffff1673ffffffffffffffffffffffffffffffffffffffff163373ffffffffffffffffffffffffffffffffffffffff161461089f576040517f08c379a000000000000000000000000000000000000000000000000000000000815260040180806020018281038252601b8152602001807f4f6e6c7920746865206f776e65722063616e20646f20746869732e000000000081525060200191505060405180910390fd5b600260038111156108ac57fe5b8160038111156108b857fe5b14806108da5750600160038111156108cc57fe5b8160038111156108d857fe5b145b61092f576040517f08c379a000000000000000000000000000000000000000000000000000000000815260040180806020018281038252602c8152602001806110bc602c913960400191505060405180910390fd5b806003600084815260200190815260200160002060010160146101000a81548160ff0219169083600381111561096157fe5b02179055505050565b6000809054906101000a900473ffffffffffffffffffffffffffffffffffffffff1681565b6003600082815260200190815260200160002060000160009054906101000a900473ffffffffffffffffffffffffffffffffffffffff1673ffffffffffffffffffffffffffffffffffffffff163373ffffffffffffffffffffffffffffffffffffffff1614610a49576040517f08c379a000000000000000000000000000000000000000000000000000000000815260040180806020018281038252603281526020018061111c6032913960400191505060405180910390fd5b3373ffffffffffffffffffffffffffffffffffffffff166108fc60036000848152602001908152602001600020600201549081150290604051600060405180830381858888f19350505050158015610aa5573d6000803e3d6000fd5b506000600360008381526020019081526020016000206002018190555050565b6000809054906101000a900473ffffffffffffffffffffffffffffffffffffffff1673ffffffffffffffffffffffffffffffffffffffff163373ffffffffffffffffffffffffffffffffffffffff1614610b87576040517f08c379a000000000000000000000000000000000000000000000000000000000815260040180806020018281038252601b8152602001807f4f6e6c7920746865206f776e65722063616e20646f20746869732e000000000081525060200191505060405180910390fd5b600380600083815260200190815260200160002060010160146101000a81548160ff02191690836003811115610bb957fe5b021790555050565b6000809054906101000a900473ffffffffffffffffffffffffffffffffffffffff1673ffffffffffffffffffffffffffffffffffffffff163373ffffffffffffffffffffffffffffffffffffffff1614610c83576040517f08c379a000000000000000000000000000000000000000000000000000000000815260040180806020018281038252601b8152602001807f4f6e6c7920746865206f776e65722063616e20646f20746869732e000000000081525060200191505060405180910390fd5b6000600260008373ffffffffffffffffffffffffffffffffffffffff1673ffffffffffffffffffffffffffffffffffffffff16815260200190815260200160002060010160006101000a81548160ff02191690831515021790555050565b60036020528060005260406000206000915090508060000160009054906101000a900473ffffffffffffffffffffffffffffffffffffffff16908060010160009054906101000a900473ffffffffffffffffffffffffffffffffffffffff16908060010160149054906101000a900460ff16908060020154905084565b60015481565b670de0b6b3a7640000341015610de2576040517f08c379a00000000000000000000000000000000000000000000000000000000081526004018080602001828103825260198152602001807f5375626d697373696f6e2066656520697320312065746865720000000000000081525060200191505060405180910390fd5b600073ffffffffffffffffffffffffffffffffffffffff166003600084815260200190815260200160002060000160009054906101000a900473ffffffffffffffffffffffffffffffffffffffff1673ffffffffffffffffffffffffffffffffffffffff1614610e9d576040517f08c379a00000000000000000000000000000000000000000000000000000000081526004018080602001828103825260348152602001806110e86034913960400191505060405180910390fd5b60405180608001604052803373ffffffffffffffffffffffffffffffffffffffff1681526020018273ffffffffffffffffffffffffffffffffffffffff16815260200160006003811115610eed57fe5b8152602001348152506003600084815260200190815260200160002060008201518160000160006101000a81548173ffffffffffffffffffffffffffffffffffffffff021916908373ffffffffffffffffffffffffffffffffffffffff16021790555060208201518160010160006101000a81548173ffffffffffffffffffffffffffffffffffffffff021916908373ffffffffffffffffffffffffffffffffffffffff16021790555060408201518160010160146101000a81548160ff02191690836003811115610fbb57fe5b021790555060608201518160020155905050346001600082825401925050819055505050565b60026020528060005260406000206000915090508060000154908060010160009054906101000a900460ff16905082565b600a348161101c57fe5b046001600082825401925050819055506005348161103657fe5b04600260008473ffffffffffffffffffffffffffffffffffffffff1673ffffffffffffffffffffffffffffffffffffffff16815260200190815260200160002060000160008282540192505081905550600a600734028161109357fe5b046003600083815260200190815260200160002060020160008282540192505081905550505056fe546865206e657720737461747573206d75737420626520617070726f766564206f722072656a65637465642e412070726f6a6563742077697468207468697320686173682068617320616c7265616479206265656e207375626d69747465642e4f6e6c792074686520617574686f722063616e2077697468647261772066756e64732066726f6d20612070726f6a6563742ea265627a7a7231582000df8b65f4457121666dfd89df4c38ab514e92a20b57bc0f5d6cadfac21f498d64736f6c634300050c0032",
  "source": "pragma solidity ^0.5.0; // Step 1\n\ncontract ProjectSubmission { // Step 1\n\n    address public owner; // Step 1 (state variable)\n    uint public ownerBalance;  // Step 4 (state variable)\n\n    modifier onlyOwner() { // Step 1\n      require(msg.sender == owner, \"Only the owner can do this.\");\n      _;\n    }\n    struct University { // Step 1\n        // address account; // this line is not necessary if I make the universities mapping (address => University)\n        uint balance;\n        bool acceptingSubmissions;\n    }\n\n    mapping(address => University) public universities; // Step 1 (state variable)\n\n    enum ProjectStatus {\n        Waiting, Rejected, Approved, Disabled\n    } // Step 2\n\n    struct Project { // Step 2\n        address author;\n        address universityAddress;\n        ProjectStatus status;\n        uint balance;\n    }\n    // ...projects... // Step 2 (state variable)\n\n    mapping(bytes32 => Project) public projects;\n\n    constructor() public {\n      owner = msg.sender;\n    }\n\n    function registerUniversity(address account) onlyOwner public { // Step 1\n        universities[account].acceptingSubmissions = true;\n    }\n\n    function disableUniversity(address account) onlyOwner public { // Step 1\n        universities[account].acceptingSubmissions = false;\n    }\n\n    function submitProject(bytes32 projectHash, address universityAddress) public payable { // Step 2 and 4\n        require(msg.value >= 1 ether, \"Submission fee is 1 ether\");\n        require(projects[projectHash].author == address(0), \"A project with this hash has already been submitted.\");\n        projects[projectHash] = Project(msg.sender, universityAddress, ProjectStatus.Waiting, msg.value);\n        ownerBalance += msg.value;\n    }\n\n    function disableProject(bytes32 projectHash) onlyOwner public { // Step 3\n        projects[projectHash].status = ProjectStatus.Disabled;\n    }\n\n    function reviewProject(bytes32 projectHash, ProjectStatus status) onlyOwner public { // Step 3\n        require(status == ProjectStatus.Approved || status == ProjectStatus.Rejected, \"The new status must be approved or rejected.\");\n        projects[projectHash].status = status;\n    }\n\n    function donate(address universityAddress, bytes32 projectHash) public payable { // Step 4\n        ownerBalance += msg.value / 10;                           // = 10%\n        universities[universityAddress].balance += msg.value / 5; // = 20%\n        projects[projectHash].balance += msg.value * 7 / 10;      // = 70%\n    }\n\n    function withdraw() public { // Step 5\n        require(msg.sender == owner || universities[msg.sender].balance > 0);\n        if(msg.sender == owner){\n            msg.sender.transfer(ownerBalance);\n            ownerBalance = 0;\n        } else {\n            msg.sender.transfer(universities[msg.sender].balance);\n            universities[msg.sender].balance = 0;\n        }\n\n    }\n\n    function withdraw(bytes32 projectHash) public {  // Step 5 (Overloading Function)\n        require(msg.sender == projects[projectHash].author, \"Only the author can withdraw funds from a project.\");\n        msg.sender.transfer(projects[projectHash].balance);\n        projects[projectHash].balance = 0;\n    }\n}",
  "sourcePath": "/home/josh/Documents/ethereum/project-submission/contracts/ProjectSubmission.sol",
  "compiler": {
    "name": "solc",
    "version": "0.5.12+commit.7709ece9.Emscripten.clang"
  },
  "schemaVersion": "3.0.2",
  "updatedAt": "2019-10-31T16:12:06.670Z",
  "devdoc": {
    "methods": {}
  },
  "userdoc": {
    "methods": {}
  }
}